:020000023000CC
:10E0000071C000008EC000008CC000008AC00000FB
:10E0100088C0000086C0000084C0000082C00000EC
:10E0200080C000007EC000007CC000007AC00000FC
:10E0300078C0000076C0000074C0000072C000000C
:10E0400070C000006EC000006CC000006AC000001C
:10E0500068C0000066C0000064C0000062C000002C
:10E0600060C000005EC000005CC000005AC000003C
:10E0700058C0000056C0000054C0000052C000004C
:10E0800050C000004EC000004CC000004AC000005C
:10E0900048C0000046C0000044C0000042C000006C
:10E0A00040C000003EC000003CC000003AC000007C
:10E0B00038C0000036C0000034C0000032C000008C
:10E0C00030C000002EC000002CC000002AC000009C
:10E0D00028C0000026C0000024C0000022C00000AC
:10E0E00020C0000011241FBECFEFD1E2DEBFCDBFA4
:10E0F00001E00CBF12E0A0E0B2E0E0EAF3EE03E0E2
:10E100000BBF02C007900D92A030B107D9F722E0F3
:10E11000A0E0B2E001C01D92A030B207E1F797D0B5
:10E120003DC16ECF4F925F926F927F928F929F927E
:10E13000AF92BF92CF92DF92EF92FF920F931F9315
:10E14000CF93DF93C0E0D0E064C0BC2FAA276D015D
:10E15000E12CF12C83E0F601E0925B008093570004
:10E16000E89507B600FCFDCF80E090E012C04601C4
:10E170005701880E991EA11CB11C0FEF1FEF61E023
:10E180000801F401A0925B0060935700E895112408
:10E1900002968F3F910559F350F380E090E02AC03A
:10E1A000BC016A0F7B1F2B01612C712C4901A12C32
:10E1B000B12C481459046A047B0450F4FA01E60FA8
:10E1C000F71F1081618170E0762F6627612B02C0F6
:10E1D0006FEF7FEF46015701880E991EA11CB11CFD
:10E1E00011E00B01F401A0925B0010935700E89539
:10E1F000112402968F3F910599F290F285E0F60185
:10E20000E0925B0080935700E89507B600FCFDCFD5
:10E210002196C9010197892F99270196C817D90717
:10E2200008F493CF81E180935700E895DF91CF9177
:10E230001F910F91FF90EF90DF90CF90BF90AF9024
:10E240009F908F907F906F905F904F900895CF93A5
:10E25000DF93CDB7DEB7DA950FB6F894DEBF0FBE09
:10E26000CDBF45D08FEF84B980E090E00DC025B1DF
:10E27000205825B92FEF39E648E121503040404081
:10E28000E1F700C0000001968230910584F38E0111
:10E290000F5F1F4F80E091E0F8019C011192215027
:10E2A0003040E1F787E6898320E031E0A80160E0B3
:10E2B00070E0CB0143D0F89420E031E0A80160E0A9
:10E2C00070E0CB012FDF80E090E00DC025B1205839
:10E2D00025B93FEF49E6E8E131504040E040E1F741
:10E2E00000C0000001968A30910584F3FFCF87E0DB
:10E2F00084B988E181B981E58CBD82B1886182B938
:10E30000089592B121E030E002C0220F331F8A95B8
:10E31000E2F72095292322B9089592B121E030E057
:10E3200002C0220F331F8A95E2F7292B22B90895E4
:10E330008EBD0DB407FEFDCF8EB50895CF92DF924E
:10E34000EF92FF920F931F93CF93DF93C62FD72F98
:10E35000182F6A01790183E0D4DF83E0E9DF812FA0
:10E36000E7DF8D2FE5DF8C2FE3DFC0E0D0E008C0D2
:10E3700086010C0F1D1F80E0DBDFF80180832196F2
:10E38000CE15DF05A8F383E0C8DFDF91CF911F91A1
:10E390000F91FF90EF90DF90CF900895F894FFCF0A
:040000033000E000E9
:00000001FF
