S0120000426F6F746C6F616465722E7372656307
S21403E00071C000008EC000008CC000008AC00000F3
S21403E01088C0000086C0000084C0000082C00000E4
S21403E02080C000007EC000007CC000007AC00000F4
S21403E03078C0000076C0000074C0000072C0000004
S21403E04070C000006EC000006CC000006AC0000014
S21403E05068C0000066C0000064C0000062C0000024
S21403E06060C000005EC000005CC000005AC0000034
S21403E07058C0000056C0000054C0000052C0000044
S21403E08050C000004EC000004CC000004AC0000054
S21403E09048C0000046C0000044C0000042C0000064
S21403E0A040C000003EC000003CC000003AC0000074
S21403E0B038C0000036C0000034C0000032C0000084
S21403E0C030C000002EC000002CC000002AC0000094
S21403E0D028C0000026C0000024C0000022C00000A4
S21403E0E020C0000011241FBECFEFD1E2DEBFCDBF9C
S21403E0F001E00CBF18E0A0E0B2E0E6E2FCEE03E0CD
S21403E1000BBF02C007900D92AC34B107D9F729E0D4
S21403E110ACE4B8E001C01D92A335B207E1F7D9D04D
S21403E12080C56ECF4F925F926F927F928F929F922F
S21403E130AF92BF92CF92DF92EF92FF920F931F930D
S21403E140CF93DF93C0E0D0E064C0BC2FAA276D0155
S21403E150E12CF12C83E0F601E0925B0080935700FC
S21403E160E89507B600FCFDCF80E090E012C04601BC
S21403E1705701880E991EA11CB11C0FEF1FEF61E01B
S21403E1800801F401A0925B0060935700E895112400
S21403E19002968F3F910559F350F380E090E02AC032
S21403E1A0BC016A0F7B1F2B01612C712C4901A12C2A
S21403E1B0B12C481459046A047B0450F4FA01E60FA0
S21403E1C0F71F1081618170E0762F6627612B02C0EE
S21403E1D06FEF7FEF46015701880E991EA11CB11CF5
S21403E1E011E00B01F401A0925B0010935700E89531
S21403E1F0112402968F3F910599F290F285E0F6017D
S21403E200E0925B0080935700E89507B600FCFDCFCD
S21403E2102196C9010197892F99270196C817D9070F
S21403E22008F493CF81E180935700E895DF91CF916F
S21403E2301F910F91FF90EF90DF90CF90BF90AF901C
S21403E2409F908F907F906F905F904F900895CF939D
S21403E250DF93CDB7DEB7D6500FB6F894DEBF0FBE4A
S21403E260CDBFAE014F5F5F4F80E096E0FA019C01A1
S21403E270119221503040E1F720E036E060E070E094
S21403E280CB016BD0F89420E036E040E052E060E04B
S21403E29070E0CB0147DFDA5F0FB6F894DEBF0FBE40
S21403E2A0CDBFDF91CF910895CF93DF93E7D0C0E042
S21403E2B0D0E007C061E070E0CE0180509E4FF7D0FB
S21403E2C02196C11586E0D807ACF38CD1DF91CF91A8
S21403E2D008951CD08FEF84B980E090E00DC025B17F
S21403E2E0205825B92FEF39E648E121503040404009
S21403E2F0E1F700C0000001968230910584F3D4DF75
S21403E300A6DF0C9400008FEF85B9FFCF87E084B9B2
S21403E31088E181B981E58CBD82B1886182B90895AF
S21403E32092B121E030E002C0220F331F8A95E2F754
S21403E3302095292322B9089592B121E030E002C046
S21403E340220F331F8A95E2F7292B22B908958EBD33
S21403E3500DB407FEFDCF8EB50895CF92DF92EF92F0
S21403E360FF920F931F93CF93DF93C62FD72F182FAA
S21403E3706A01790183E0D4DF83E0E9DF812FE7DFF9
S21403E3808D2FE5DF8C2FE3DFC0E0D0E008C08601E9
S21403E3900C0F1D1F80E0DBDFF80180832196CE156E
S21403E3A0DF05A8F383E0C8DFDF91CF911F910F91BC
S21403E3B0FF90EF90DF90CF900895CF9383E0B0DF88
S21403E3C085E0C5DF80E0C3DFC82F83E0B5DF8C2F91
S21403E3D0CF91089583E0A4DF86E0B9DF83E0ACDF66
S21403E3E0ECDF81FFFDCF0895DF92EF92FF920F934C
S21403E3F01F93CF93DF93C62FD72FD82E7A01890189
S21403E400E9DF83E08DDF82E0A2DF8D2DA0DF8D2F95
S21403E4109EDF8C2F9CDFC0E0D0E006C0F701EC0F38
S21403E420FD1F808194DF2196C017D107B8F383E0E0
S21403E43083DFC3DF80FDFDCFDF91CF911F910F9167
S21403E440FF90EF90DF9008951F93CF93DF93C62F2F
S21403E450D72F182FBFDF83E063DF88ED78DF812FA8
S21403E46076DF8D2F74DF8C2F72DF83E065DFA5DF09
S21403E47080FDFDCFDF91CF911F910895CF92DF925C
S21403E480EF92FF92C12CD12C760106C0C701B601CC
S21403E490DBDF8FEFE81AF80AC114D10480E2E8063E
S21403E4A0F104A0F3FF90EF90DF90CF900895CF9202
S21403E4B0DF92EF92FF921F93CF93DF932091510841
S21403E4C030915208A901460F571F4130514008F4B6
S21403E4D07CC0122F119540E050E014C020915108E3
S21403E4E030915208FC01E40FF51FA081F901ED5AA3
S21403E4F0F74FA0832F5F3F4F309352082093510866
S21403E5004F5F5F4FC12FD0E020E031E02C1B3D0B67
S21403E510421753071CF37B016C0160914D08709101
S21403E5204E0880914F089091500820E031E043E573
S21403E53058E05ADF80914D0890914E08A0914F08FD
S21403E540B09150089F5FAF4FBF4F80934D08909395
S21403E5504E08A0934F08B09350081092520810929A
S21403E560510880E090E015C0209151083091520880
S21403E570FC01EC0FFD1FEC0DFD1D4081F901ED5A6A
S21403E580F74F40832F5F3F4F309352082093510835
S21403E59001969701211B31098217930728F31AC0A6
S21403E5A02091510830915208FC01E40FF51FA08119
S21403E5B0F901ED5AF74FA0832F5F3F4F3093520870
S21403E5C0209351084F5F5F4F02C040E050E046176C
S21403E5D0570730F3DF91CF911F91FF90EF90DF90B5
S21403E5E0CF900895CF93DF93CDB7DEB76E970FB670
S21403E5F0F894DEBF0FBECDBF20915108309152086C
S21403E6002115310559F060914D0870914E0880919F
S21403E6104F089091500843E558E0E6DE10924D0807
S21403E62010924E0810924F081092500810925208FB
S21403E6301092510880914C081F928F938FE298E0B6
S21403E6409F938F93CE0101969F938F930FD00F9036
S21403E6500F900F900F900F900F906E960FB6F89442
S21403E660DEBF0FBECDBFDF91CF9108950F931F93EB
S21403E670CF93DF93CDB7DEB72E970FB6F894DEBFF2
S21403E6800FBECDBF0E891F8986E08C831A8309834C
S21403E6908FEF9FE79E838D83AE01465E5F4F688D47
S21403E6A0798DCE01019610D0EF81F885E00FF11F2A
S21403E6B010822E960FB6F894DEBF0FBECDBFDF9145
S21403E6C0CF911F910F9108952F923F924F925F9291
S21403E6D06F927F928F929F92AF92BF92CF92DF926A
S21403E6E0EF92FF920F931F93CF93DF93CDB7DEB7CF
S21403E6F02B970FB6F894DEBF0FBECDBF6C017B0120
S21403E7008A01FC0117821682838181FFBFC1CE0175
S21403E71001963C01F6019381F70193FD859193FFE2
S21403E72081917F01882309F4ADC1853239F493FDC5
S21403E730859193FF81917F01853221F4B60190E0A4
S21403E740D6D1E8CF912C212C312CFFE1F315D8F04C
S21403E7508B3279F038F4803279F08332A1F4232DAA
S21403E76020611DC08D3261F0803369F4232D216052
S21403E77016C0832D8260382EE32DE4603E2E2AC019
S21403E780F32DF8601DC037FC2DC020ED280F2A306E
S21403E79040F08E32B9F436FC75C1232D2064322E38
S21403E7A019C036FE06C08AE0989E200D1124922ECC
S21403E7B011C0EAE02E9E200D1124222EF32DF062C6
S21403E7C03F2E08C08C3621F4832D8068382E02C075
S21403E7D0883641F4F70193FD859193FF81917F017C
S21403E7E08111B3CF982F9F7D9554933028F40C5FF7
S21403E7F01F4F9FE399830DC0833631F0833771F043
S21403E800833509F055C020C0F801808189830E5FE7
S21403E8101F4F88248394912C530112C02801F2E0E1
S21403E8204F0E511CF801A080B18036FE03C0692D3F
S21403E83070E002C06FEF7FEFC5014ED14C0182013D
S21403E840F32DFF773F2E15C0280122E0420E511C00
S21403E850F801A080B18036FE03C0692D70E002C0C7
S21403E8606FEF7FEFC5012DD14C01F32DF0683F2EDE
S21403E870820133FC19C0822D90E088169906A0F415
S21403E880B60180E290E033D12A94F5CFF50137FC48
S21403E890859137FE81915F01B60190E028D1211062
S21403E8A02A9421E0821A91088114910479F7E1C031
S21403E8B0843611F0893639F5F80137FE07C06081D2
S21403E8C07181828193810C5F1F4F08C060817181C3
S21403E8D0072E000C880B990B0E5F1F4FF32DFF7648
S21403E8E03F2E97FF09C090958095709561957F4F51
S21403E8F08F4F9F4FF0683F2E2AE030E0A30133D1BD
S21403E900882E861844C0853731F4232D2F7EB22EE9
S21403E9102AE030E025C0932D997FB92E8F36C1F0BB
S21403E92018F4883579F0AEC0803719F0883721F0AF
S21403E930A9C0E92FE061BE2EB4FE0DC0FB2DF46026
S21403E940BF2E09C034FE0AC0292F2660B22E06C089
S21403E95028E030E005C020E130E002C020E132E0EC
S21403E960F801B7FE07C060817181828193810C5FD5
S21403E9701F4F06C06081718180E090E00E5F1F4FDD
S21403E980A301F1D0882E8618FB2DFF773F2E36FE87
S21403E9900DC0232D2E7FA22E891458F434FE0BC0EF
S21403E9A032FC09C0832D8E7EA82E05C0B82CA32C5E
S21403E9B003C0B82C01C0B92CA4FE0FC0FE01E80D9D
S21403E9C0F11D8081803321F49A2D997EA92E09C0EA
S21403E9D0A2FE06C0B394B39404C08A2D867809F0C9
S21403E9E0B394A3FC10C0A0FE06C0B21480F4280C97
S21403E9F0922C9B180DC0B21458F4B60180E290E036
S21403EA0076D0B394F8CFB21418F42B1802C0982C0F
S21403EA10212CA4FE0FC0B60180E390E068D0A2FECE
S21403EA2016C0A1FC03C088E790E002C088E590E02A
S21403EA30B6010CC08A2D867851F0A1FE02C08BE287
S21403EA4001C080E2A7FC8DE2B60190E050D08914A5
S21403EA5030F4B60180E390E04AD09A94F8CF8A94D3
S21403EA60F301E80DF11D8081B60190E040D08110DE
S21403EA70F6CF222009F44ECEB60180E290E037D0DE
S21403EA802A94F7CFF6018681978102C08FEF9FEF16
S21403EA902B960FB6F894DEBF0FBECDBFDF91CF9196
S21403EAA01F910F91FF90EF90DF90CF90BF90AF90A4
S21403EAB09F908F907F906F905F904F903F902F9096
S21403EAC00895FC010590615070400110D8F78095B9
S21403EAD090958E0F9F1F0895FC0161507040019022
S21403EAE00110D8F7809590958E0F9F1F08950F936A
S21403EAF01F93CF93DF93FB01238121FD03C08FEF89
S21403EB009FEF2CC022FF16C0468157812481358192
S21403EB104217530744F4A081B1819D012F5F3F4FF5
S21403EB20318320838C93268137812F5F3F4F378332
S21403EB30268314C08B01EC01FB010084F185E02DD4
S21403EB401995892BE1F6D80116968D919C91179706
S21403EB50019617969C938E931697CE01DF91CF91CD
S21403EB601F910F910895FA01AA27283051F12031F9
S21403EB7081F1E8946F936E7F6E5F7F4F8F4F9F4F49
S21403EB80AF4FB1E03ED0B4E03CD0670F781F891F8B
S21403EB909A1FA11D680F791F8A1F911DA11D6A0F59
S21403EBA0711D811D911DA11D20D009F468943F910C
S21403EBB02AE0269F11243019305D3193DEF6CF010B
S21403EBC00895462F4770405D4193B3E00FD0C9F7D1
S21403EBD0F6CF462F4F70405D4A3318F0495D31FD3E
S21403EBE04052419302D0A9F7EACFB4E0A695979591
S21403EBF0879577956795BA95C9F700976105710567
S21403EC0008959B01AC010A2E0694579547953795B0
S21403EC102795BA95C9F7620F731F841F951FA01D0A
S20A03EC200895F894FFCFEF
S21403EC260C9417010C942B010C942B010C942B01BA
S21403EC360C942B010C942B010C942B010C942B0196
S21403EC460C942B010C942B010C942B010C942B0186
S21403EC560C942B010C942B010C942B010C942B0176
S21403EC660C942B010C942B010C942B010C942B0166
S21403EC760C942B010C942B010C942B010C94100270
S21403EC860C942B010C942B010C942B010C942B0146
S21403EC960C942B010C942B010C942B010C942B0136
S21403ECA60C942B010C942B010C942B010C942B0126
S21403ECB60C942B010C942B010C942B010C942B0116
S21403ECC60C942B010C942B010C942B010C942B0106
S21403ECD60C942B010C942B010C942B010C942B01F6
S21403ECE60C942B010C942B010C942B010C942B01E6
S21403ECF60C942B010C942B010C942B010C942B01D6
S21403ED060C942B010C9485010C94AF010C94AB0167
S21403ED160C945E010C9474010C9459010C9497019F
S21403ED260C94A1010C947F010C9478010C948F012A
S21403ED360C947C010C9489010C9470010C94930139
S21403ED460C94A5010C949D010000210024002700C5
S21403ED562A002D00300033000101000004010701DC
S21403ED660A0100002200250028002B002E00310091
S21403ED76340002010000050108010B01050505051F
S21403ED86070508080808020202020A0A0808040415
S21403ED960404010101010101010103030303030343
S21403EDA60303040707070C0C0C0C0C0C0C0C0202D2
S21403EDB6020206060606060606060B0B0B0B0B0BCF
S21403EDC60B0B01021020200808102040102040805C
S21403EDD60201020108040201010204081020408011
S21403EDE6804020100804020180040201804020109F
S21403EDF608040201080402010102040810204080E8
S21403EE06010204081020408000000A0B02090C0DBC
S21403EE160E080703040100000000000000000000BF
S21403EE2600000000000000000000000000000000D4
S21403EE360000000012111000000000000000000091
S21403EE46000000000000000000000000000011247F
S21403EE561FBECFEFD1E2DEBFCDBF00E00CBF22E080
S21403EE66A0E0B2E001C01D92A930B207E1F70E9406
S21403EE765A020C94FE020C940000382FE5EFF1E0DC
S21403EE868491EFEAF1E02491E9E6F1E0949199237F
S21403EE9609F435C0882311F181508231F8F4E82F3E
S21403EEA6F0E08827E95BFE4F8F4F0C94F602780155
S21403EEB67C015901700174015E017F018501890198
S21403EEC68F01930197019D01A1015E01A501AB0187
S21403EED6AF01809180008F7780938000E92FF0E062
S21403EEE6EE0FFF1FEE5BFE4FA591B4918FB7F89416
S21403EEF6EC91311148C020952E232C938FBF08958D
S21403EF06809180008F7DE8CF80918000877FE4CF55
S21403EF1684B58F7784BDE2CF84B58F7DFBCF809192
S21403EF26B0008F778093B000D9CF8091B0008F7DE5
S21403EF36F9CF809190008F7780939000CFCF809102
S21403EF4690008F7DF9CF80919000877FF5CF8091D3
S21403EF56A0008F778093A000C1CF8091A0008F7DFD
S21403EF66F9CF8091A000877FF5CF809120018F7718
S21403EF7680932001B3CF809120018F7DF9CF8091B6
S21403EF862001877FF5CF2E2BB8CF3FB7F894809115
S21403EF96050290910602A0910702B091080226B5D3
S21403EFA6A89B05C02F3F19F00196A11DB11D3FBFB3
S21403EFB6BA2FA92F982F8827BC01CD01620F711D82
S21403EFC6811D911D42E0660F771F881F991F4A957C
S21403EFD6D1F708958F929F92AF92BF92CF92DF9208
S21403EFE6EF92FF920E94B5014B015C0184EFC82E97
S21403EFF6DD24D394E12CF12C0E94B5016819790916
S21403F0068A099B09683E734081059105A8F321E0AA
S21403F016C21AD108E108F10888EE880E83E0981E26
S21403F026A11CB11CC114D104E104F10429F7FF9015
S21403F036EF90DF90CF90BF90AF909F908F900895FC
S21403F0461F920F920FB60F9211242F933F938F930F
S21403F0569F93AF93BF938091010290910202A09172
S21403F0660302B09104023091000223E0230F2D37EA
S21403F07658F50196A11DB11D209300028093010247
S21403F08690930202A0930302B093040280910502B2
S21403F09690910602A0910702B09108020196A11D5F
S21403F0A6B11D8093050290930602A0930702B093C0
S21403F0B60802BF91AF919F918F913F912F910F9029
S21403F0C60FBE0F901F90189526E8230F0296A11DD4
S21403F0D6B11DD2CF789484B5826084BD84B5816031
S21403F0E684BD85B5826085BD85B5816085BD809105
S21403F0F66E00816080936E0010928100809181007D
S21403F1068260809381008091810081608093810074
S21403F116809180008160809380008091B100846036
S21403F1268093B1008091B00081608093B000809197
S21403F1369100826080939100809191008160809314
S21403F1469100809190008160809390008091A10049
S21403F15682608093A1008091A10081608093A100C4
S21403F1668091A00081608093A00080912101826037
S21403F17680932101809121018160809321018091F2
S21403F186200181608093200180917A0084608093B9
S21403F1967A0080917A00826080937A0080917A0062
S21403F1A6816080937A0080917A00806880937A00E3
S21403F1B61092C100EFEAF1E02491E9E6F1E08491CA
S21403F1C6882399F090E0880F991FFC01E85DFE4FAF
S21403F1D6A591B491FC01EE5BFE4F859194918FB792
S21403F1E6F894EC91E22BEC938FBFC0E0D0E081E07D
S21403F1F60E942D010E94DA0180E00E942D010E94E2
S21403F206DA012097A1F30E940000F1CFEE0FFF1F4D
S21403F216881F8BBF0790F691E02D1994F894FFCFBD
S21403F2265374617274696E672066726F6D206164CB
S21403F23664726573733A203078253036780D0A0083
S21403F2462B2530346420007C20253032782000437A
S21403F256616C63756C6174656420436865636B7380
S21003F266756D3A20253032780D0A000042
S80403E00018
