:020000023000CC
:10E0000071C000008FC000008DC000008BC00000F8
:10E0100089C0000087C0000085C0000083C00000E8
:10E0200081C000007FC000007DC000007BC00000F8
:10E0300079C0000077C0000075C0000073C0000008
:10E0400071C000006FC000006DC000006BC0000018
:10E0500069C0000067C0000065C0000063C0000028
:10E0600061C000005FC000005DC000005BC0000038
:10E0700059C0000057C0000055C0000053C0000048
:10E0800051C000004FC000004DC000004BC0000058
:10E0900049C0000047C0000045C0000043C0000068
:10E0A00041C000003FC000003DC000003BC0000078
:10E0B00039C0000037C0000035C0000033C0000088
:10E0C00031C000002FC000002DC000002BC0000098
:10E0D00029C0000027C0000025C0000023C00000A8
:10E0E00021C0000011241FBECFEFD1E2DEBFCDBFA3
:10E0F00001E00CBF12E0A0E0B2E0E8E6F1EF03E0DF
:10E100000BBF02C007900D92A83FB107D9F724E0DA
:10E11000A8EFB2E001C01D92A430B207E1F769D1C7
:10E120000D94B2F86DCF2F923F924F925F926F9203
:10E130007F928F929F92AF92BF92CF92DF92EF9297
:10E14000FF920F931F93CF93DF93CDB7DEB727973F
:10E150000FB6F894DEBF0FBECDBFDC01CB01882720
:10E1600089839A83AB83BC83212C312C7FC0B22D51
:10E17000AA27C980DA80EB80FC80CA0EDB1EE11C76
:10E18000F11C83E0F601E0925B0080935700E89574
:10E1900007B600FCFDCF80E090E012C046015701B9
:10E1A000880E991EA11CB11C6FEF7FEF11E00B01CF
:10E1B000F401A0925B0010935700E8951124029699
:10E1C0008F3F910559F350F380E090E03DC0BC01D2
:10E1D0006A0F7B1F4B01A12CB12C2901612C712CE2
:10E1E00084149504A604B704E8F4FA01E60FF71FB7
:10E1F00000810F831FEF811A910AA10AB10A8414CA
:10E200009504A604B70438F46F5F7F4F640F751F41
:10E21000FB01608101C06FEF70E0762F6627FF8100
:10E220006F2B02C06FEF7FEF46015701880E991EDA
:10E23000A11CB11C11E00B01F401A0925B00109332
:10E240005700E895112402968F3F910509F008F4D4
:10E25000BECF85E0F601E0925B0080935700E89521
:10E2600007B600FCFDCF0FEF201A300AC901019755
:10E27000892F992701962816390608F478CF81E16D
:10E2800080935700E89527960FB6F894DEBF0FBE2F
:10E29000CDBFDF91CF911F910F91FF90EF90DF9055
:10E2A000CF90BF90AF909F908F907F906F905F9036
:10E2B0004F903F902F9008954F925F926F927F9270
:10E2C000AF92BF92CF92DF92EF92FF920F931F9384
:10E2D000CF93DF93CDB7DEB7DA950FB6F894DEBFF4
:10E2E0000FBECDBF2B013C01F894FE01319680E0BA
:10E2F00091E0DF019C011D9221503040E1F700E0E8
:10E3000010E030C0B301A2014C195D096E097F090C
:10E310004F3F51056105710591F088F020E031E033
:10E32000AE014F5F5F4FC701B60153D220E031E02D
:10E33000AE014F5F5F4FC701B601F5DE11C052015C
:10E34000A81AB90A9501AE014F5F5F4FC701B60128
:10E3500040D29501AE014F5F5F4FC701B601E3DECA
:10E360000F5F1F4F902F88276C01092E000CEE08BD
:10E37000FF08C414D504E604F70408F4C3CF789466
:10E38000D3950FB6F894DEBF0FBECDBFDF91CF910E
:10E390001F910F91FF90EF90DF90CF90BF90AF90C3
:10E3A0007F906F905F904F900895CF93DF93CDB79C
:10E3B000DEB7E9970FB6F894DEBF0FBECDBFFE0102
:10E3C000319699E3DF011D929A95E9F79FEF9983C2
:10E3D00097E39A8388AF89AF69E370E0CF01B2D148
:10E3E000E9960FB6F894DEBF0FBECDBFDF91CF9197
:10E3F0000895CF93DF93CDB7DEB7CA5CD1090FB6CE
:10E40000F894DEBF0FBECDBF14BE0FB6F894A8952A
:10E4100080916000886180936000109260000FBE60
:10E4200087E690E05CD124D165D278948FEF84B9EF
:10E4300080E090E00DC025B1205825B92FEF39E6D6
:10E4400048E1215030404040E1F700C00000019613
:10E450008230910584F381E0A8DF84E1ECE5F2E00D
:10E46000DE01119601900D928A95E1F7CE01019699
:10E470005DD183E1ECE3F2E0DE01119601900D92B3
:10E480008A95E1F7CE01019651D18DE0EFE4F2E0FB
:10E49000DE01119601900D928A95E1F7CE01019669
:10E4A00045D1FE01759684E6DF011D928A95E9F754
:10E4B0008FE0E0E7F2E0DE01A758BF4F01900D9238
:10E4C0008A95E1F78DE0E0E0F2E0DE01A857BF4F6A
:10E4D00001900D928A95E1F7CB56DF4F1982188291
:10E4E000C559D0408EE290E0C956DF4F99838883AA
:10E4F000C759D0408EE0EFE0F2E0DE01A756BF4FF3
:10E5000001900D928A95E1F7C955DF4F1882C75ADD
:10E51000D04085E0EFE7F2E0DE01A855BF4F019063
:10E520000D928A95E1F7F12CCE01459625D10D8902
:10E530008E89863059F118F48530C9F050C0873083
:10E5400089F18B3A09F04BC0CE0187569F4FEED030
:10E5500085E0E4E8F2E0DE01A855BF4F01900D929E
:10E560008A95E1F7CE0188559F4FE0D046C082E002
:10E570001CDFCE0187589F4FD9D0D5D1602F70E0D6
:10E5800061507109CE014796DFD137C0CE0189565F
:10E590009F4FCCD0602F70E061507109CE0147963B
:10E5A000D3D12BC0CE0188579F4FC0D010E0B80107
:10E5B00062507109CE014796C7D1E5E1F0E0EC0F5A
:10E5C000FD1FE00FF11F80815ED2882329F083E0D8
:10E5D000ECDEFF24F39411C084E0E7DE0EC085E09A
:10E5E000E9E8F2E0DE01A855BF4F01900D928A954F
:10E5F000E1F7CE0188559F4F99D0B1E0FB1294CF3F
:10E600006091F8027091F9028091FA029091FB02F8
:10E6100053DE87E1EEE1F2E0DE01A355BF4F01904A
:10E620000D928A95E1F7EDEAF0E0EC0FFD1F779689
:10E6300087E0DF011D928A95E9F7CE0183559F4F50
:10E6400075D014B81DB81AB81CBC1092C100109235
:10E65000C9004091F8025091F9026091FA0270915C
:10E66000FB0280E090E068D511240C940000FFCFFD
:10E6700087E084B988E181B981E58CBD82B1886188
:10E6800082B9089592B121E030E002C0220F331F19
:10E690008A95E2F72095292322B9089592B121E0C5
:10E6A00030E002C0220F331F8A95E2F7292B22B9EE
:10E6B00008958EBD0DB407FEFDCF8EB50895AC0153
:10E6C00020E030E080E007C0FA01E20FF31F908104
:10E6D00089272F5F3F4F26173707B0F308952DB1D5
:10E6E00022602DB92AB128602AB99093C500809381
:10E6F000C40038E13093C10026E02093C20090931B
:10E70000CD008093CC003093C9002093CA000895B7
:10E710009091C00095FFFCCF8093C6000895909122
:10E72000C80095FFFCCF8093CE000895CF93DF9370
:10E73000EC0102C0EDDF219688818111FBCFDF91D2
:10E74000CF9108950F931F93CF93DF93EC018C012A
:10E75000060F171F02C08991E2DFC017D107D8F357
:10E76000DF91CF911F910F9108958091C800882368
:10E77000E4F78091CE000895EF92FF920F931F93DC
:10E78000CF93DF937C01F1DF8F3FE9F7EEDF082FB6
:10E7900010E008C0C12FD0E02196CE0DDF1DE5DFCF
:10E7A00088831F5F0117B0F7F7010083602F70E0C7
:10E7B000FB013196EE0DFF1DC081C70101967FDF81
:10E7C000C813E1CFDF91CF911F910F91FF90EF9090
:10E7D0000895CF92DF92EF92FF920F931F93CF9302
:10E7E000DF93C62FD72F182F6A01790183E04ADF04
:10E7F00083E05FDF812F5DDF8D2F5BDF8C2F59DFA3
:10E80000C0E0D0E008C086010C0F1D1F80E051DF82
:10E81000F80180832196CE15DF05A8F383E03EDF63
:10E82000DF91CF911F910F91FF90EF90DF90CF90EC
:10E830000895CF9383E026DF85E03BDF80E039DF7A
:10E84000C82F83E02BDF8C2FCF91089583E01ADF50
:10E8500086E02FDF83E022DFECDF81FFFDCF08952C
:10E86000DF92EF92FF920F931F93CF93DF93C62F08
:10E87000D72FD82E7A018901E9DF83E003DF82E018
:10E8800018DF8D2D16DF8D2F14DF8C2F12DFC0E0E7
:10E89000D0E006C0F701EC0FFD1F80810ADF219652
:10E8A000C017D107B8F383E0F9DEC3DF80FDFDCFE9
:10E8B000DF91CF911F910F91FF90EF90DF9008951E
:10E8C0001F93CF93DF93C62FD72F182FBFDF83E07F
:10E8D000D9DE88EDEEDE812FECDE8D2FEADE8C2F87
:10E8E000E8DE83E0DBDEA5DF80FDFDCFDF91CF91A9
:10E8F0001F910895CF92DF92EF92FF92C12CD12CFD
:10E90000760106C0C701B601DBDF8FEFE81AF80A0F
:10E91000C114D10480E2E806F104A0F3FF90EF9067
:10E92000DF90CF900895109203031092020310928B
:10E93000FE021092FF021092000310920103109247
:10E94000FD021092FC020895DF92EF92FF920F9366
:10E950001F93CF93DF93EC018B01B1DE9091FD0209
:10E9600089278093FD02809102039091030398010F
:10E97000280F391F2130314008F478C0D82ED194A7
:10E9800020E030E013C08091020390910303FE0168
:10E99000E20FF31F4081FC01EC5FFC4F40830196C6
:10E9A00090930303809302032F5F3F4FED2CF12CD4
:10E9B00080E091E08E199F092817390724F36091B0
:10E9C000FE027091FF02809100039091010320E00C
:10E9D00031E044E053E044DF8091FE029091FF0279
:10E9E000A0910003B09101039F5FAF4FBF4F809391
:10E9F000FE029093FF02A0930003B09301031092D4
:10EA000003031092020320E030E015C0809102035E
:10EA100090910303F901EE0DFF1DEC0FFD1F4081E6
:10EA2000FC01EC5FFC4F40830196909303038093BD
:10EA300002032F5F3F4FC8018D199109281739072D
:10EA400028F319C08091020390910303FE01E20FA5
:10EA5000F31F4081FC01EC5FFC4F408301969093D3
:10EA60000303809302032F5F3F4F02C020E030E09A
:10EA70002017310738F3DF91CF911F910F91FF904D
:10EA8000EF90DF900895FF920F931F93CF93DF9342
:10EA9000CDB7DEB76E970FB6F894DEBF0FBECDBF11
:10EAA000F82E20910203309103032115310559F00E
:10EAB0006091FE027091FF0280910003909101032A
:10EAC00044E053E0CDDE20910203309103038091B6
:10EAD000FE029091FF02A0910003B0910103820F0A
:10EAE000931FA11DB11D8093F8029093F902A0938A
:10EAF000FA02B093FB021092FE021092FF021092F3
:10EB000000031092010310920303109202038091FC
:10EB1000FD021F928F9381EC92E09F938F938E0161
:10EB20000F5F1F4F1F930F932CD0C801FFDD1F9263
:10EB3000FF928DED92E09F938F931F930F9321D0BF
:10EB4000C801F4DD8091FD020FB6F894DEBF0FBE60
:10EB5000CDBFF81204C081E08093FC0201C0CADE80
:10EB600081E09091FD029F1180E06E960FB6F894BF
:10EB7000DEBF0FBECDBFDF91CF911F910F91FF90F0
:10EB800008950F931F93CF93DF93CDB7DEB72E97E2
:10EB90000FB6F894DEBF0FBECDBF0E891F8986E089
:10EBA0008C831A8309838FEF9FE79E838D83AE0149
:10EBB000465E5F4F688D798DCE01019610D0EF8152
:10EBC000F885E00FF11F10822E960FB6F894DEBF85
:10EBD0000FBECDBFDF91CF911F910F9108952F925E
:10EBE0003F924F925F926F927F928F929F92AF92DD
:10EBF000BF92CF92DF92EF92FF920F931F93CF932A
:10EC0000DF93CDB7DEB72B970FB6F894DEBF0FBEFC
:10EC1000CDBF6C017B018A01FC01178216828381C2
:10EC200081FFBFC1CE0101963C01F6019381F7013E
:10EC300093FD859193FF81917F01882309F4ADC1F4
:10EC4000853239F493FD859193FF81917F0185325F
:10EC500021F4B60190E0D6D1E8CF912C212C312CB3
:10EC6000FFE1F315D8F08B3279F038F4803279F087
:10EC70008332A1F4232D20611DC08D3261F08033D9
:10EC800069F4232D216016C0832D8260382EE32D78
:10EC9000E4603E2E2AC0F32DF8601DC037FC2DC065
:10ECA00020ED280F2A3040F08E32B9F436FC75C1C1
:10ECB000232D2064322E19C036FE06C08AE0989EAD
:10ECC000200D1124922E11C0EAE02E9E200D112459
:10ECD000222EF32DF0623F2E08C08C3621F4832DB6
:10ECE0008068382E02C0883641F4F70193FD859183
:10ECF00093FF81917F018111B3CF982F9F7D955410
:10ED0000933028F40C5F1F4F9FE399830DC0833627
:10ED100031F0833771F0833509F055C020C0F80118
:10ED2000808189830E5F1F4F88248394912C530127
:10ED300012C02801F2E04F0E511CF801A080B180F2
:10ED400036FE03C0692D70E002C06FEF7FEFC50192
:10ED50004ED14C018201F32DFF773F2E15C02801C3
:10ED600022E0420E511CF801A080B18036FE03C0A3
:10ED7000692D70E002C06FEF7FEFC5012DD14C010E
:10ED8000F32DF0683F2E820133FC19C0822D90E0F4
:10ED900088169906A0F4B60180E290E033D12A9457
:10EDA000F5CFF50137FC859137FE81915F01B60102
:10EDB00090E028D121102A9421E0821A9108811430
:10EDC000910479F7E1C0843611F0893639F5F801FC
:10EDD00037FE07C060817181828193810C5F1F4F74
:10EDE00008C060817181072E000C880B990B0E5FA3
:10EDF0001F4FF32DFF763F2E97FF09C0909580950A
:10EE0000709561957F4F8F4F9F4FF0683F2E2AE09E
:10EE100030E0A30133D1882E861844C0853731F401
:10EE2000232D2F7EB22E2AE030E025C0932D997F2E
:10EE3000B92E8F36C1F018F4883579F0AEC080371E
:10EE400019F0883721F0A9C0E92FE061BE2EB4FE89
:10EE50000DC0FB2DF460BF2E09C034FE0AC0292F5F
:10EE60002660B22E06C028E030E005C020E130E088
:10EE700002C020E132E0F801B7FE07C06081718175
:10EE8000828193810C5F1F4F06C06081718180E099
:10EE900090E00E5F1F4FA301F1D0882E8618FB2D46
:10EEA000FF773F2E36FE0DC0232D2E7FA22E891414
:10EEB00058F434FE0BC032FC09C0832D8E7EA82E80
:10EEC00005C0B82CA32C03C0B82C01C0B92CA4FEDB
:10EED0000FC0FE01E80DF11D8081803321F49A2DD1
:10EEE000997EA92E09C0A2FE06C0B394B39404C0B3
:10EEF0008A2D867809F0B394A3FC10C0A0FE06C04A
:10EF0000B21480F4280C922C9B180DC0B21458F443
:10EF1000B60180E290E076D0B394F8CFB21418F442
:10EF20002B1802C0982C212CA4FE0FC0B60180E340
:10EF300090E068D0A2FE16C0A1FC03C088E790E074
:10EF400002C088E590E0B6010CC08A2D867851F0A9
:10EF5000A1FE02C08BE201C080E2A7FC8DE2B601F7
:10EF600090E050D0891430F4B60180E390E04AD0AC
:10EF70009A94F8CF8A94F301E80DF11D8081B601CF
:10EF800090E040D08110F6CF222009F44ECEB60199
:10EF900080E290E037D02A94F7CFF60186819781FE
:10EFA00002C08FEF9FEF2B960FB6F894DEBF0FBE17
:10EFB000CDBFDF91CF911F910F91FF90EF90DF9028
:10EFC000CF90BF90AF909F908F907F906F905F9009
:10EFD0004F903F902F900895FC0105906150704034
:10EFE0000110D8F7809590958E0F9F1F0895FC0112
:10EFF0006150704001900110D8F7809590958E0F68
:10F000009F1F08950F931F93CF93DF93FB012381DD
:10F0100021FD03C08FEF9FEF2CC022FF16C0468159
:10F020005781248135814217530744F4A081B1816F
:10F030009D012F5F3F4F318320838C932681378141
:10F040002F5F3F4F3783268314C08B01EC01FB01F8
:10F050000084F185E02D1995892BE1F6D8011696EB
:10F060008D919C911797019617969C938E93169766
:10F07000CE01DF91CF911F910F910895FA01AA2738
:10F08000283051F1203181F1E8946F936E7F6E5FEB
:10F090007F4F8F4F9F4FAF4FB1E03ED0B4E03CD099
:10F0A000670F781F891F9A1FA11D680F791F8A1F7C
:10F0B000911DA11D6A0F711D811D911DA11D20D0E3
:10F0C00009F468943F912AE0269F11243019305D9D
:10F0D0003193DEF6CF010895462F4770405D41938E
:10F0E000B3E00FD0C9F7F6CF462F4F70405D4A33DB
:10F0F00018F0495D31FD4052419302D0A9F7EACFA3
:10F10000B4E0A6959795879577956795BA95C9F7D1
:10F1100000976105710508959B01AC010A2E0694C4
:10F120005795479537952795BA95C9F7620F731F7D
:10F13000841F951FA01D0895242F07D0252F05D0CB
:10F1400000C002D0272F01C0262FF999FECF1FBA89
:10F1500092BD81BD20BD0FB6F894FA9AF99A0FBE00
:08F1600001960895F894FFCF19
:10F168000D0A46696E69736865640D0A00000041FE
:10F178006C6C277320476F6F64210D0A00004A7575
:10F188006D70696E6720746F207468652073746190
:10F1980072740D0A00000000000000002D2D2D2DB6
:10F1A8002D2D2D2D2D2D2D2D2D2D2D2D0D0A0042E2
:10F1B8006F6F74696E672E2E2E0D0A0043617453AB
:10F1C800617420426F6F746C6F616465720D0A0020
:10F1D80053746172742055706C6F61640D0A005825
:10F1E800580D0A0041420D0A0044450D0A005374A7
:10F1F800617274696E672066726F6D2061646472F3
:10F208006573733A203078253036780D0A002B253F
:10F2180030346420007C202530327820007C0D0AB0
:10F228000043616C63756C61746564204368656351
:10F238006B73756D3A20253032780D0A005265637C
:10F24800656976656420436865636B73756D3A20FC
:08F25800253032780D0A000098
:040000033000E000E9
:00000001FF
